:100000000C9434000C9446000C9446000C9446006A
:100010000C9446000C9446000C9446000C94460048
:100020000C9446000C9446000C9446000C94460038
:100030000C9446000C9446000C9446000C94460028
:100040000C9448000C9446000C9446000C94460016
:100050000C9446000C9446000C9446000C94460008
:100060000C9446000C94460011241FBECFEFD8E03C
:10007000DEBFCDBF21E0A0E0B1E001C01D92A23003
:10008000B207E1F70E9413010C9493010C94000055
:100090001F920F920FB60F9211248F939F9380910E
:1000A0000101843610F0109201018091000181114C
:1000B00004C08BB18F7B8BB919C08091000184364D
:1000C00020F08BB180648BB911C080910101811146
:1000D00004C08BB180648BB909C0909101018091FB
:1000E0000001981303C08BB18F7B8BB98091010104
:1000F0008F5F809301019F918F910F900FBE0F90A2
:100100001F9018958AB180648AB98BB18F7B8BB9A7
:1001100014BC82E085BDEEE6F0E0808181608083E2
:1001200010920001109201010895853608F084E6CE
:100130008093000108959C01A4E6B0E00E94840130
:100140002FEF33E040E050E00E946201822F0895DB
:10015000853B08F084EB282F30E0A0EABFE00E9446
:10016000840124EB30E040E050E00E94620128511D
:100170003C4F3093890020938800089584B18260B9
:1001800084B982E8809380008AE18093810080E4D2
:100190009CE990938700809386008AE50E94A800DE
:1001A00008959C01A4EBB0E00E9484012FEF33E09E
:1001B00040E050E00E946201822F0895ACE7B0E079
:1001C00080E48C93EAE7F0E087E880838C91807F7D
:1001D00086608C9385E38A95F1F7000080818064C6
:1001E000808380917A0086FDFCCF80917800909189
:1001F00079000895ECE7F0E09081907F8F70892B73
:10020000808385E38A95F1F70000EAE7F0E08081DA
:100210008064808380917A0086FDFCCF8091780095
:100220009091790008950E94DE000E94BE000E9415
:1002300052010E948200789486E00E94FA000E9497
:10024000D1000E94A80087E00E94FA000E94D1001D
:100250000E943B0185E00E94FA000E949B000E94E0
:1002600095002FEF89EF90E0215080409040E1F71A
:1002700000C00000E1CF853B08F084EB9DE1899F41
:1002800090011124A3E8BDE20E9484019695879510
:10029000929582958F7089279F708927895F8093B7
:1002A000B40008958AB188608AB983E28093B0006F
:1002B0008FE08093B1008FEF8093B3008AE50E94B6
:1002C0003B010895A1E21A2EAA1BBB1BFD010DC024
:1002D000AA1FBB1FEE1FFF1FA217B307E407F507F6
:1002E00020F0A21BB30BE40BF50B661F771F881FD2
:1002F000991F1A9469F760957095809590959B0168
:10030000AC01BD01CF010895A29FB001B39FC00110
:10031000A39F700D811D1124911DB29F700D811D31
:0A0320001124911D0895F894FFCFF9
:00000001FF
